:020000040800F2
:10000000A81A002005010008F1240008D51F0008E7
:10001000C1240008790D0008F13900080000000033
:10002000000000000000000000000000FF2C00089D
:10003000CD14000800000000D92700083134000862
:100040001F0100081F0100081F0100081F01000810
:100050001F0100081F0100081F0100081F01000800
:100060001F0100081F0100081F0100081F010008F0
:100070001F0100081F0100087D0F0008A50F0008E0
:100080001F0100081F0100081F0100081F010008D0
:10009000893900081F0100081F01000835150008F4
:1000A0001F0100081F0100081F0100081F010008B0
:1000B000913400081F0100081F0100081F010008FB
:1000C0001F0100081F0100081F0100081F01000890
:1000D0001F0100081F0100081D3600081F0100084D
:1000E0001F0100081F010008C1370008DFF810D009
:1000F00000F0E8FD0048004751570008AFF30080CA
:10010000A81A00200648804706480047FEE7FEE799
:10011000FEE7FEE7FEE7FEE7FEE7FEE7FEE7FEE7B7
:1001200041340008ED0000080022C0F84C21C0E96D
:100130005421704770B5D0F84C110446D0F85021C6
:100140000D4685A003F0E2FD1BE0294688A003F0E0
:10015000DDFD05EB451688A014F8161003F0D6FD5A
:1001600004EB460687A0717803F0D0FD87A003F06A
:10017000CDFDB11C87A003F0C9FD87A003F0C6FD2B
:100180006D1CD4F8540195FBF0F100FB1150D4F82C
:1001900050118842D9D1BDE870407FA003F0B6BDB0
:1001A00000F5A871D0F84C0106C9491C91FBF2F387
:1001B00002FB1311814201D10120704700207047DA
:1001C000D0E95310814201D10120704700207047CF
:1001D0000FB410B50446FFF7E3FF18B1002010BCC0
:1001E0005DF814FBD4F850119DF80C0001EB41119F
:1001F00004F81100D4F850119DF80D0001EB4111E5
:1002000004EB41014870D4F850019DF80D2000EB3B
:10021000401004EB40000DF10E01801C00F01AFAB2
:1002200004F5A87003C8401C90FBF1F201FB12001A
:10023000C4F850010120D2E770B50D460446FFF71F
:10024000BFFF08B1002070BDD4F84C01422200EB82
:10025000401004EB4001284600F0FCF9D4F84C01B2
:10026000422100EB401004EB400000F00CFAD4F8FF
:100270004C01D4F85411401C90FBF1F201FB120028
:10028000C4F84C016878402803D944A003F03EFD2F
:10029000D8E7012070BD30B5002288B05FF00A03B6
:1002A000B0FBF3F403FB1404B0FBF3F030348C54D4
:1002B000521C0028F4D1885410006B4604D40C5C06
:1002C000151A401E5C55FAD5012004E01C5C0D187F
:1002D000401C05F8014C9042F8DD08B030BD2DE916
:1002E000F04117468846064600241DE0305D00F0C8
:1002F000ABF9C5B23019407800F0A6F9C0B2392D7B
:1003000001D9373D00E0303DE9B2392801D937380D
:1003100000E03038C0B204EBD47240EA011008EBC0
:100320006201A41C087024B2BC42DFDBBDE8F0818E
:10033000F8B515460E46074600240AE03A5D1CA1B2
:10034000684603F0A5FC06EB4400BDF800100180F0
:10035000641CAC42F2DBF8BD512D3E66726F6E74C8
:10036000203A25642C726561723A2025640A0000E7
:1003700069203A2564000000666C61673A256420B4
:10038000000000006C656E3A256420006D736720E4
:100390003A000000257320000A0000006572726FA9
:1003A00072207175657565206D73670A0000000025
:1003B00025303258000000009E48006870479D4973
:1003C0000A6810440A68121A002AFBDD7047F6E733
:1003D00000EB40008100002001E000BF401C88428B
:1003E000FBD37047F8B50124ADF8004010208DF81C
:1003F0000300914E03258DF802506946304601F006
:100400008FF90121304601F0E0F9ADF800400020FD
:100410008DF803008DF802506946304601F080F9EE
:100420000220FFF7CCFFF8BD30B5844D044685B0FF
:10043000284602F009FC0021ADF800104FF482704C
:10044000ADF80200ADF808106815ADF80A00ADF877
:100450000410ADF80C400720ADF80610ADF80E10F2
:10046000ADF810006946284602F023FC0121284619
:1004700002F0E0FB05B030BD2020D5E70020D3E737
:1004800010B56D4C1021204601F09FF90120FFF7B7
:1004900096FF1021204601F09AF9BDE81040072090
:1004A0008DE78CE76649024600200968114200D0BA
:1004B000012070477FB5012500245F4A0826ADF86A
:1004C000085030B304208DF80B0002A9104601F04B
:1004D00027F90021084601F00FF98DF804408DF846
:1004E000056000958DF80650684601F031F84FF42C
:1004F000407002F031F806208DF80C000F208DF8C6
:100500000D008DF80E408DF80F5003A801F0F2FF9A
:100510007FBD8DF80B4003208DF80A0002A910461C
:1005200001F0FEF88DF804408DF8056000958DF817
:100530000640684601F00CF87FBD2DE9F041984671
:1005400015460F460646002404F0E7F802463A48EE
:10055000102314300360394806E0395D8181018938
:10056000C907FCD08189641CB442F6DB002107E096
:1005700018F8014084810489E407FCD08489491C6F
:10058000A942F5D32C4810300360104604F0BCF8A3
:100590000020BDE8F0812DE9F0411D461646884651
:1005A0000746002404F0B9F802462348102314300B
:1005B0000360224809E000BF18F804108181018916
:1005C000C907FCD081892970641CBC42F4DB00217E
:1005D0000C4606E084810789FF07FCD087896F54A9
:1005E000491CB142F6D3144810300360104604F0A1
:1005F0008BF80020CDE710B5124C01E004F03CFC74
:100600002021204601F0DAF80028F7D110BD4FF084
:10061000E0214FF40000C1F88001BFF34F8FBFF31A
:100620006F8F70474FF0E0214FF40000C1F80001D8
:1006300070470000700F00200008014000300140AA
:1006400000040140000C0140A0F16101192900D80B
:100650002038704740EA01039B0703D009E008C92E
:10066000121F08C0042AFAD203E011F8013B00F877
:10067000013B521EF9D27047D2B201E000F8012BC3
:10068000491EFBD270470022F6E710B513460A4612
:1006900004461946FFF7F0FF204610BD80EA01022C
:1006A00010B502F00043400022D04A001FD0010ED6
:1006B00001EB1261C0F35600C2F3560240F4000091
:1006C00042F40002A0FB022000047F39140400D091
:1006D000401C50EA124001D44000491EC2B20C0630
:1006E00004EBD010401C4008802A02D003E0002018
:1006F00010BD20F00100002900DA0020184310BDD1
:100700002DE9FE4F804681EA0300C00F0C460090A1
:1007100021F0004123F00045B8EB0200A94105D2C9
:100720004046214690461C460B46024623F00040B8
:10073000104347D0270DC7F30A00C3F30A510290B4
:10074000401A019040286BDAC3F3130040F4801B79
:100750000098924620B10023D2EB030A63EB0B0B07
:1007600001985946C0F14002504600F0CEF90646C5
:100770000D4650465946019A00F0E6F910EB080084
:100780006141002487EA115284EAE7731A4340D09A
:10079000009A62B3019A012A4FEA075215DC001B46
:1007A00061EB02014FF0004202EA0752CDE900423C
:1007B000001C41F5801132462B4600F01DFA03B0B3
:1007C000BDE8F08F40462146F9E7001B61EB0201CE
:1007D000001C41F5801300185B412018A2F500179A
:1007E00047EB030140EAD570B6196D4111E06D0881
:1007F0004FEA360645EAC0754FEA0752001B61EB27
:100800000201001C41F5801149084FEA300000192F
:10081000514132462B4603B0BDE8F04F00F0DDB940
:100820000098012240000023D0EB020263EBE0734A
:10083000009821464FEAE074B8EB000061EB040138
:10084000E9E783F000435BE781F0004158E72DE9D9
:10085000FE4F81EA030404F0004421F000410094BB
:100860004FF0000B23F0004350EA01045ED052EA3F
:1008700003045BD0C3F30A54C1F30A552C44A4F219
:10088000F3340194A0FB0254C1F3130141F480112D
:10089000C3F3130343F4801301FB024400FB034E34
:1008A000840A970A44EA815447EA8357A4FB0768FD
:1008B00002958D0A05FB07854FEA932C04FB0C5427
:1008C0002705029D4FEA065847EA1637B5EB08059B
:1008D0006EEB070C870E920E47EA811742EA8312ED
:1008E000A7FB0201B6EB0B0164EB00042B0D43EAFE
:1008F0000C335E1844EB1C50DA465146E7FB02010C
:10090000C5F313044FEA0B3343EA14534FEA04329E
:10091000019C43EA0603A4F10C040294009CCDE977
:1009200000B400F069F903B0BDE8F08F0020014683
:10093000F9E72DE9F04D81EA030404F0004B21F0C2
:10094000004514464FF0000A23F0004150EA05022A
:1009500020D054EA01021DD0C5F30A570246C5F360
:100960001303C1F31300C1F30A5640F4801543F496
:100970008013A7EB0608101BD64608F2FD3873EB70
:10098000050002D308F1010801E092185B41B8F1BB
:10099000000F03DA00200146BDE8F08D00204FF47F
:1009A0008011064684460EE0171B73EB050705D33E
:1009B000121B63EB050306434CEA010C49084FEA9E
:1009C000300092185B4150EA0107EDD152EA030072
:1009D00012D082EA040083EA0501084305D0101B07
:1009E000AB4106D20122002306E000224FF0004373
:1009F00002E06FF0010253101AEB06004CEB0851B5
:100A000010EB0A0041EB0B01BDE8F04D00F0E5B83A
:100A100096230022114600F0B2B800F0004220F008
:100A20000040C10DC0F3160040F400007F2901DA38
:100A300000207047962903DCC1F19601C84001E00F
:100A400096398840002AF4D040427047C1F30A52D8
:100A5000C1F3130140F2FF3341F480119A4202DAEC
:100A600000200146704740F233439A42A2F23342DB
:100A700002DC524200F058B800F047B830B50B46DF
:100A8000014600202022012409E021FA02F59D42BE
:100A900005D303FA02F5491B04FA02F52844151E92
:100AA000A2F10102F1DC30BD2DE9F05F0546002026
:100AB00092469B4688460646814640241BE02846CF
:100AC00041464746224600F02FF853465A46C01A80
:100AD000914110D311461846224600F016F82D1AFF
:100AE00067EB01084F4622460120002100F00DF877
:100AF00017EB00094E41201EA4F10104DFDC48463B
:100B000031462A464346BDE8F09F202A04DB203ABE
:100B100000FA02F1002070479140C2F1200320FA50
:100B200003F3194390407047202A04DB203A21FA4E
:100B300002F00021704721FA02F3D040C2F12002F6
:100B40009140084319467047202A06DBCB17203A0C
:100B500041FA02F043EAE07306E041FA02F3D040C2
:100B6000C2F1200291400843194670470029A8BFEE
:100B70007047401C490008BF20F00100704710B4C6
:100B8000B0FA80FC00FA0CF050EA010404BF10BC7B
:100B9000704749B1CCF1200421FA04F411FA0CF1A8
:100BA00018BF012121430843A3EB0C01CB1D4FEAE1
:100BB00000614FEA102042BF002010BC704700EBDC
:100BC000C35010440029A4BF10BC7047401C49000A
:100BD00008BF20F0010010BC704710B5141E73F15F
:100BE000000408DA401C41F1000192185B411A43ED
:100BF00001D120F0010010BD2DE9F04D92469B4639
:100C000011B1B1FA81F202E0B0FA80F220329046DE
:100C1000FFF77BFF04460F4640EA0A0041EA0B015A
:100C200053465A46084313D0114653EA010019D0DF
:100C3000C8F140025046FFF777FF05460E46504682
:100C400059464246FFF761FF084305D0012004E002
:100C500020463946BDE8F08D0020054346EAE0769F
:100C60002C4337430A986305E40AA0EB08000022EE
:100C7000FD0A44EA47540A3002D500200146E9E75C
:100C8000010510196941DDE9084500196941BDE810
:100C9000F04DA2E730B5041E71F1000404DB4FF003
:100CA0000044404264EB0101141E73F1000405DBB3
:100CB0001C464FF00043524263EB0403994208BFC5
:100CC000904230BD064C074D06E0E06840F001035D
:100CD00094E8070098471034AC42F6D3FFF70AFABD
:100CE000A05E0008C05E000870B58C1810F8015BAB
:100CF00015F0070301D110F8013B2A1106D110F8B5
:100D0000012B03E010F8016B01F8016B5B1EF9D1B8
:100D10002B0705D40023521E0DD401F8013BFAE73E
:100D200010F8013BCB1A921C03E013F8015B01F8A9
:100D3000015B521EF9D5A142D8D3002070BD00003E
:100D400029220249024800F039BE0000840B00202D
:100D50000038010810B5064C02E0642000F0A2FD46
:100D600029220449204600F0C8FF0028F5D010BD14
:100D700000380108840B002005A002F0C7FF0948D5
:100D80000169491C0161FFF7E5FF01F0FFFB00006D
:100D90004275734661756C745F48616E646C657210
:100DA0000A000000840B0020C1B2000A40EA0120C2
:100DB000704700002DE9F84F0020ADF800004BF619
:100DC000BF7648F280084A4D4A4C40F68F7ADFF8E9
:100DD000289148F60F7B494F2FE0088810F00F004C
:100DE00089F8000032D007EB8001D1F8002CADF873
:100DF0000020BDF8002012040BD5D1F8002C02EA27
:100E00000A02C1F8002C3E4901EB800050F8040CA6
:100E10008047BDF8000000060FD599F8000007EBE9
:100E20008001D1F8002C02EA0B02C1F8002C3549F0
:100E300001EB800050F8040C80472D4844300068D6
:100E4000314908800004C8D4BDE8F88F28682080A4
:100E5000208800F030006080208800F4405020801E
:100E60002868304080F4005080F0200040EA0800FC
:100E700028600888C00617D4296801EA0B01296098
:100E800001F0C6FA28E02188890401D580F40050D9
:100E90006188C90628D46188890601D580F02000C0
:100EA00040EA08002860CFE72868ADF80000BDF8E8
:100EB0000000000506D5296801EA0A01296002F050
:100EC0008FF809E0BDF800000004B6D5286800EAF4
:100ED0000A00286001F04CFC286821883040C904D1
:100EE000D1D580F48050CEE780F01000D3E7000029
:100EF000005C00403E0F00202C0F002000500040FE
:100F0000680E00204C0E0020420E00208100084890
:100F10000844D0F8001C490409D5D0F8001C48F654
:100F20008F7211404CF280021143C0F8001C7047D0
:100F300000500040810008480844D0F8001C4906D1
:100F400009D5D0F8001C48F68F72114048F2C00253
:100F50001143C0F8001C7047005000408100064853
:100F60000844D0F8001C48F68F62114048F2800215
:100F70001143C0F8001C70470050004010B54FF4FA
:100F80000054204600F0E2F8002808D0044901206F
:100F9000C1F8F00A2046BDE8104000F041B810BD8D
:100FA0008C00002070B54FF40036A0B0304600F041
:100FB000DDF840B31948174A1749007804F0D3FE0A
:100FC00008B344210EA8FFF75EFB134D00248DF8F3
:100FD00038402A788DF839200E490DF13A00FFF794
:100FE00039FB362211A96846FFF734FB0DF1380CA6
:100FF00008489CE80E008030FFF7EAF82C8040217A
:101000000448FFF740FB20B03046BDE8704000F0D8
:1010100013B80000800F0020CC0C0020FC0C002036
:10102000C10002D502490860704702494860704714
:101030000404024000000240C10002D502490860D9
:1010400070470249486070470404024000000240B3
:101050000029016802D041F0010102E04FF6FE7262
:10106000114001607047000001684FF6FE721140A8
:1010700001600021016041608160C1603149314AF5
:101080000839904203D1486840F00F0006E02D4A2D
:101090001432904204D1486840F0F0004860704734
:1010A000284A2832904203D1486840F47060F5E73E
:1010B000244A3C32904203D1486840F47040EDE746
:1010C000204A5032904203D1486840F47020E5E74E
:1010D0001C4A6432904203D1486840F47000DDE756
:1010E000184A7832904203D1486840F07060D5E7E2
:1010F000154A111F904203D1086840F00F0006E026
:10110000114A1432904204D1086840F0F00008609F
:1011100070470D4A2832904203D1086840F470604D
:10112000F5E7094A3C32904203D1086840F4704028
:10113000EDE7054A50329042EAD1086840F4702049
:10114000E5E70000080002400804024002460020D3
:10115000D10001D5034900E003490968114200D0DC
:1011600001207047000402400000024002460020B7
:10117000D10001D5034900E003490968114200D0BC
:10118000012070470004024000000240002A02686B
:1011900001D00A4300E08A430260704730B502681C
:1011A00047F6F0739A430C6A8B682343D1E90445F0
:1011B0002C4323438C692343CC6923434C6A234348
:1011C0008C6A234313430360CA6842600A688260E2
:1011D0004968C16030BD00002DE9F047DFF8949008
:1011E000254F4FF03008D9F8001001F11005088A9A
:1011F0000E7A08B9042E04D0AC88A04215D8042673
:1012000014E01E480178012903D0072610203880F9
:101210002BE01B4A002112681A4B120403EBD23256
:101220005160A7F8008001701FE00226844200D9B7
:101230000446A968204688478246002000F0EAFA62
:1012400001462246504602F0EBFB2146002001F009
:10125000EDFD2888001B2880688820446880A7F856
:10126000008009494FF440500880D9F80000067208
:10127000BDE8F087300F0020400F0020280F00202D
:10128000505C0040006000403E0F00202DE9F04718
:10129000224EDFF88C803027346834F8100FA168B4
:1012A000A9B100B3A588854200D9054628468847DC
:1012B00081462088401B2080608828446080002070
:1012C00000F088FA01462A46484601F075FA20885F
:1012D00048B114494FF4405008800021084601F0FD
:1012E000A5FDA8F800702088A188884201D30320BA
:1012F00001E020B1052031680872BDE8F08731684F
:1013000006200872084900200968084A090402EB0F
:10131000D1314860A8F80070EFE70000300F0020DE
:10132000400F00203E0F0020505C00400060004055
:10133000F8B55D4C5D4D0926206800272968427884
:10134000062A05D0AAB1082A4DD00A2A50D06BE04F
:101350000278520668D18078012804D0022804D08F
:10136000032804D060E0C96956E0096A54E0496A7C
:1013700052E04288B2BBC288022A55D102798ABBA8
:101380000278530601D1838833B102F07F02012A2B
:1013900004D0022A0CD047E045493DE08A694079F3
:1013A00000219047F0B92068807A0028F4D13BE012
:1013B000417901F00F0001F070020B063D4901EB8D
:1013C0008001D1F8001C03D5C1F30111090102E02D
:1013D000C1F301310903384B1B78834224D90AB980
:1013E0000029D9D120E0007840061DD1334913E00F
:1013F000027802F07F02012A16D1827AA2B14288D5
:1014000092B9027982B9C288012A0DD18A694079DC
:101410000021904740B92A4931B120684782816153
:1014200000208847002006E0296820680969407884
:101430008847032813D021680A8AA2F57F43FF3B1F
:101440000BD002280ED06AB10878000626D5C888CD
:10145000009082420AD9088218E00E72F8BD206816
:101460000672F8BD4FF008000872F8BD0ED2286869
:10147000144B90F82C00824201D21F7006E0B2FBA0
:10148000F0F400FB142008B901201870286890F8C7
:101490002C008882BDE8F840FFF79EBE032008724A
:1014A000094900030880F8BD300F0020340F0020E8
:1014B000B131000800500040F00E00204531000816
:1014C00089310008280F00203E0F002070470000DF
:1014D00070B50E4D2878012815D140210C4802F036
:1014E0007FFA0404240C4FF000060DD02246C021E0
:1014F000074802F095FA2146012001F097FC0120EF
:1015000001F0BAFC6E6070BD2E7070BD380E002008
:10151000C815002010B50649032002F04FFA81B229
:10152000034802F033FABDE81040032001F05CBC30
:101530000816002010B5FFF75EF8BDE81040202027
:10154000AFF30080014908607047000014040140B7
:1015500030B51A4A8379016853B313688B4313601B
:10156000111D0B680468A3430B60017911440B68DB
:10157000046823430B60114B083319680468A143C6
:1015800019601C1D21680568A94321604179102953
:1015900005D011440A68006802430A6030BD19682A
:1015A000026811431960216800680143216030BD61
:1015B0000079104402688A43026030BD0004014093
:1015C0000149C860704700000020024070B5054620
:1015D0004FF43026304600F07DF8042811D1094C34
:1015E000206940F0020020616561206940F0400000
:1015F0002061304600F06EF8216941F6FD7211401D
:10160000216170BD0020024008490420CA68D20749
:1016100001D001207047CA68520701D502207047E7
:10162000C968C906FBD503207047000000200240AE
:101630000248016941F080010161704700200240C9
:1016400004490A6822F010020A600A6802430A602C
:1016500070470000002002402DE9F84106460020B6
:101660004FF4005700900D46384600F033F8042838
:1016700016D10C4C206940F0010020613580B8463D
:10168000384600F027F8BF1E042806D1B61C280CE7
:1016900000963080404600F01DF8216939402161F4
:1016A000BDE8F88100200240034A116801F03801CA
:1016B00001431160704700000020024003480249C6
:1016C00041600349416070472301674500200240A3
:1016D000AB89EFCD00B50346FFF796FF02E0FFF7B9
:1016E00093FF5B1E012803D0002B00D1052000BD15
:1016F000002BF4D1FAE7000010B58A0721F00304AB
:101700000649120F21440F238C6893409C438C6040
:101710008B68904003438B6010BD000000000140C7
:10172000F0B5CC78002204F00F03E40601D58C78E4
:1017300023430C784FF00F0C14F0FF0F4FF0010E05
:101740001BD005680E880EFA02F42640A64210D17E
:1017500096000CFA06F725EA070703FA06F5CE7895
:101760003D43282E02D0482E02D002E0446100E022
:101770000461521C082AE5D305600A88FF2A1CD997
:101780004468002202F108060EFA06F50E882E4083
:10179000AE420ED196000CFA06F7BC4303FA06F7E8
:1017A000CE783C43282E00D14561CE78482E00D11A
:1017B0000561521C082AE5D34460F0BD02460020B2
:1017C00092680A4200D00120704741617047016170
:1017D000704700000549096889B201EBC00004495F
:1017E00001EB4000008980B270470000505C00406F
:1017F000006000400549096889B201EBC000044956
:1018000001EB40008089C0F309007047505C004044
:10181000006000400449096889B201EBC000034937
:1018200031F8100080B27047505C0040006000400A
:101830000A4810B50168001D0468001D00680818FA
:101840000BD00822064900F011FE0549204604226B
:10185000BDE81040103100F009BE10BDE8F7FF1FD1
:10186000120E00201CB505210120FFF745FF2020A6
:10187000009000208DF8040008208DF8050001205C
:101880008DF806006846FFF763FE00F067FA1CBD9E
:1018900003480168002902D00168491E01607047B1
:1018A000F80C0020054908604FF0E020026942F082
:1018B0000102026108680028FCD17047F80C002082
:1018C000704700F08BBD10B53721202003F034FFA6
:1018D0000321212003F030FFC021222003F02CFF40
:1018E0008821232003F028FF7F21302003F024FFEC
:1018F0000221322003F020FF0321332003F01CFFDC
:101900005F21BDE81040202003F016BF08B501217B
:10191000042000F0F9FF0220ADF8000010208DF83F
:10192000030003208DF8020069460448FFF7F8FE23
:101930000121042000F004F808BD00000008014067
:1019400002460D48052A16D2DFE802F0120E0E0EEE
:10195000120002210AE001290DD1022102E0012931
:1019600009D10021FFF731BF0029F8D1FFF72FBFC0
:101970000029F0D1EDE770470008014070B50E4E28
:101980000546002416F82400022811D106EB840035
:101990004188B5FBF1F001FB105048B9B5FBF1F0FF
:1019A000C007E0B201D0002100E00121FFF7C8FF2D
:1019B000641C042CE6DB70BDE60C002010B500238F
:1019C00004E010C841F823405B1CDBB29342F8D31B
:1019D00010BD00F08DBA08B51C208DF800000B205A
:1019E0008DF8010000208DF8020001208DF8030021
:1019F000684600F07FFD08BDFEB527484FF47A71B8
:101A00000068B0FBF1F0401EB0F1807F43D24FF090
:101A1000E024606166170F21304600F0A7FD002525
:101A2000A561072020610521304600F09FFD0121BE
:101A3000084600F051FF40F2E730ADF8040041F6EF
:101A40001F40ADF800004FF08044ADF80650ADF8EF
:101A500002506946204601F057FD012211462046FA
:101A600001F049FD0121204601F02FFDFFF7B3FFF2
:101A7000072440F2712545F2555000F0C3FC204682
:101A800000F0B4FC284600F0B7FC00F0A7FCBDE86D
:101A9000FE4000F09BBCFEE7D00C00201FB50121EA
:101AA00044F2040000F030FF4FF40070ADF8000085
:101AB00003208DF8020018201C4C8DF803006946A5
:101AC0002046FFF72DFE2115ADF8001004218DF8FA
:101AD000031069462046FFF723FE4FF4E1300090E3
:101AE0000020ADF80400ADF80600ADF80800ADF830
:101AF0000C000C200E4CADF80A006946204601F09F
:101B000001FE012240F22551204601F0E2FD0121B3
:101B1000204601F0A6FD00F00DF800F076F800F088
:101B200063F8BDE81F4000F081B8000000080140E4
:101B3000003801402DE9F04301218BB0084600F048
:101B4000BFFEDFF898804046FFF78EFA0024244E4F
:101B5000102080270096CDE90447029045020694A4
:101B60000794CDE90845694640460A94FFF716FBFD
:101B7000012202214046FFF709FBA6F104080122D9
:101B80008021404601F077FDDFF8509009F11409FB
:101B90004846FFF769FA13480096CDE9010403A906
:101BA000012081E8910020200694CDE90740CDE98D
:101BB000095469464846FFF7F1FA012202214846D6
:101BC000FFF7E4FA01214846FFF742FA01224021DB
:101BD000404601F050FD0BB0BDE8F08344000240E8
:101BE00004380140FC0C002008B50F208DF80000DF
:101BF0000A208DF8010000208DF8020001208DF8E8
:101C00000300684600F076FC08BD08B50E208DF88C
:101C100000000A208DF8010000208DF8020001204C
:101C20008DF80300684600F065FC08BD70B586B00D
:101C30000121042000F068FE0121480400F04CFE60
:101C40000425ADF8105018208DF81300234E0324FE
:101C50008DF8124004A93046FFF762FD0820ADF868
:101C600010008DF813508DF8124004A93046FFF78C
:101C700057FD00244FF4E1300090ADF808400C20EF
:101C8000174DADF80440ADF80A00ADF80640ADF8C8
:101C90000C406946284601F035FD0121284601F037
:101CA000E0FC012240F22551284601F012FD4021BE
:101CB000284601F0CDFC4FF4C06000F04DFC26201A
:101CC0008DF814008DF815408DF8164001208DF820
:101CD000170005A800F00EFC06B070BD000801401A
:101CE0000044004010B501F03BF901F06FF901F03C
:101CF0008BFDBDE8104001F073BDF8B5054604202A
:101D000016460F4600248DF80000FFF7D7FC35205B
:101D1000FFF756FC2846FFF759FC8DF800009DF8A8
:101D2000000004280AD015E057F824102846FFF7D1
:101D300093FC8DF80000641CE4B22D1DB44203D264
:101D40009DF800000428EFD0FFF772FC9DF800001A
:101D5000042801D00020F8BD0120F8BD08B51720E7
:101D60008DF8000001208DF8010000208DF80200A0
:101D70008DF80300684600F0BDFB08BD10B54FF4B8
:101D8000407000F0E9FBFFF737FEFFF799FDFEF723
:101D9000D7FF134C94F82900FF2801D018B104E0B4
:101DA000002084F82900FFF7B1FDFFF777FEFFF769
:101DB00010FE94F82900002811D1FFF793FF94F842
:101DC000290000280BD100F00DF894F82900002814
:101DD00005D100F04DF8BDE81040FFF774BD10BD0F
:101DE000840B002010B5012186B0480500F074FD79
:101DF0000121082000F088FDC020ADF8100003206C
:101E00008DF812001C208DF8130004A91548FFF767
:101E100087FC154C204600F015F90021ADF80410A0
:101E20004BF6FF71ADF806103021ADF80810201503
:101E3000ADF80A000001ADF80C000C48009001213B
:101E4000204600F0F5F86946204600F03BF900F026
:101E500034FCFF2000F016FC002000F013FC06B05C
:101E6000002010BD000C014000540040801A060004
:101E700010B5012186B0880500F02EFD0121082053
:101E800000F042FD4FF44060ADF8100003208DF8E3
:101E900012001C208DF8130004A91248FFF740FC23
:101EA000114C204600F0CEF80021ADF804104BF69E
:101EB000FF71ADF806103021ADF808102015ADF80F
:101EC0000A000001ADF80C000848009001212046EE
:101ED00000F0AEF86946204600F0F4F806B00020A5
:101EE00010BD0000000C014000580040801A0600A0
:101EF00070B5354D86B0284600F0A6FE01210803D6
:101F000000F002FD01210D2000F0FEFC0021ADF8E3
:101F100004104FF48270ADF80600ADF80C1068158F
:101F2000ADF80E00ADF80810ADF810100720ADF8B0
:101F30000A10ADF81210ADF8140001A9284600F0FF
:101F4000B8FEA020ADF8000018208DF803001F4E49
:101F500003248DF8024069463046FFF7E1FB40203C
:101F6000ADF8000048208DF8030069463046FFF7C1
:101F7000D7FB1021ADF800108DF803108DF802404A
:101F800069463046FFF7CCFB0021284600F0ADFE45
:101F90000121284600F04EFE10213046FFF717FCC5
:101FA0000121082000F0B0FC2020ADF8000028201E
:101FB0008DF8030069460648FFF7B2FBFFF752FCB5
:101FC00006B0002070BD0000003001400008014054
:101FD000000C014005A001F099FE09488168491CE8
:101FE0008160FEF7B7FE00F0D1FA0000486172642C
:101FF0004661756C745F48616E646C65720A0000BE
:10200000840B00200029018802D041F4806101E0A6
:1020100021F4806101807047034600209A8A1B8B5F
:1020200042EA034222F07F42914300D101207047EF
:102030000029018802D041F0010101E021F00101F5
:1020400001807047094910B588424FF0010101D164
:102050004C0501E04FF48004204600F049FC204686
:10206000BDE81040002100F043BC000000540040D7
:102070000029018802D041F4807101E021F48071CF
:10208000018070470029018802D041F4007101E00D
:1020900021F40071018070470CB5024600200092C7
:1020A0000A0F21F07F41019202D0009A143202E01F
:1020B000009A090C1832009212680A4200D00120DE
:1020C0000CBD000070B50446808886B00D4620F037
:1020D0003F06684600F050FC27490298B0FBF1F13A
:1020E00089B20E43A680228822F001022280234B6F
:1020F0002A689A421CD85200B0FBF2F080B2042841
:1021000000D20420491C2184A083208840F00100D3
:10211000208020884FF6F5310840A9886A8911434C
:1021200001432180A88929890843208106B070BD18
:10213000EB88A3F53F46FF3E0BD002EBC20303EB57
:102140000212B0FBF2F080B240F48040020506D0EB
:1021500007E002EB4202B0FBF2F080B2F6E740F09B
:1021600001004FF4967251434FF47A72B1FBF2F1D1
:1021700040F40040C6E7000040420F00A086010086
:1021800012B141F0010101E001F0FE01018270474E
:10219000018270472DE9F05F434F82468B46002550
:1021A0003878404C41492E46002879D04FF4003908
:1021B000884649464046FFF76FFF50B16D1CA54267
:1021C00004DD3BA001F0A2FD3E7002E0387800285B
:1021D000EFD1002501214046FFF74AFFDFF8E090EC
:1021E00009E06D1CA54204DD36A001F08FFD3E70B4
:1021F00007E0387828B149464046FFF70DFF002830
:10220000EFD000252A4678214046FFF7B9FFDFF8D6
:10221000C49009E06D1CA54204DD2FA001F076FDFD
:102220003E7007E0387828B149464046FFF7F4FE93
:102230000028EFD0002551464046FFF7A9FF25486A
:10224000C146801C804609E06D1CA54204DD26A025
:1022500001F05CFD3E7007E0387828B14146484601
:10226000FFF7DAFE0028EFD0002559464846FFF771
:102270008FFF09E06D1CA54204DD1FA001F046FDA3
:102280003E7007E0387828B141464846FFF7C4FE63
:102290000028EFD04846BDE8F05F0121FFF7F2BE0D
:1022A000BDE8F09F40420F00040D002000540040A4
:1022B000494943204572726F7220310A00000000C4
:1022C00001000300494943204572726F7220320AAF
:1022D0000000000082000700494943204572726FE8
:1022E0007220330A00000000494943204572726F92
:1022F0007220340A00000000494943204572726F81
:102300007220350A000000002DE9F04788461D467E
:10231000164681460121FFF7ABFE284F642439465B
:102320004846FFF779FE10B9641EA4B2F7D2002226
:1023300041464846FFF724FF14B9214900200860B0
:10234000204F642439464846FFF766FE10B9641EE4
:10235000A4B2F7D231464846FFF71AFF194E64245B
:10236000B61C31464846FFF757FE10B9641EA4B2AA
:10237000F7D229464846FFF70BFF6424314648460A
:10238000FFF74AFE10B9641EA4B2F7D201214846F5
:10239000FFF778FE0C4D642429464846FFF77CFE83
:1023A00010B1641EA4B2F7D200214846FFF72AFEFE
:1023B0005020FFF777FA0020BDE8F0870100030006
:1023C000440F0020820007001000001002494CF664
:1023D000CC400860704700000030004002494AF6D7
:1023E000AA200860704700000030004001494860A2
:1023F00070470000003000400149886070470000CD
:102400000030004001490860704700000030004083
:1024100010B5134C2068017A022904D0042902D097
:10242000062905D015E0FEF7D7FE2068007A11E0F6
:102430004178052909D10178490606D1C07800F014
:1024400067FC08480068006A8047074800688068A1
:102450008047082021680872BDE8104000F0BEB92E
:10246000300F0020380F0020340F0020F0B500237B
:102470000A24302537261F4610E0B4EB107F02D91E
:1024800005EB107C01E006EB107C01F813C001EBBA
:10249000430C00015B1C8CF80170DBB29342ECD35F
:1024A000F0BD00000448817A044809B1052100E02C
:1024B000012101607047000068160020180F0020FD
:1024C00005A001F023FC0948C168491CC160FEF762
:1024D00041FC00F05BF800004D656D4D616E616779
:1024E000655F48616E646C65720A0000840B0020B1
:1024F0007047704730B50F23C27801780125F2B1DB
:10250000144A126801F1E02102F4E062C2F5E062CF
:10251000120AC2F10404D3404278A24084781C40DD
:102520001443220181F80024007800F01F018D403F
:102530004009800000F1E020C0F8005130BD01F0FA
:102540001F0085404809800000F1E020C0F880515C
:1025500030BD00000CED00E002490843024908606C
:10256000704700000000FA050CED00E00907090EB5
:10257000002806DA00F00F0000F1E02080F8141DBA
:10258000704700F1E02080F800147047BFF34F8FD0
:1025900005480168054A01F4E06111430160BFF399
:1025A0004F8F00BFFDE700000CED00E00400FA05CE
:1025B00070B52F4D296808784C78420606D000F097
:1025C0007F00012828D002282BD035E0092C06D026
:1025D000052C07D0032C0ED0012C14D02CE000F0D9
:1025E00031FE28E0C8787F282ED8887860BB88889C
:1025F00050BB887A27E0C87801281DD18888D8B9CF
:1026000000F03CFE17E0C878012815D1888898B9F9
:10261000487A80060AD40FE00B2C0DD100F084FE1E
:1026200009E0012C02D0032C03D005E000F00CFDE2
:1026300001E000F035FE58B10E49204609684969AD
:102640008847032802D018B108200DE009200BE0CC
:10265000094A062000211268084B120403EBD2320B
:102660005160074A302111802968087270BD00004E
:10267000300F0020340F0020505C0040006000400C
:10268000400F002070B50646002505F1B000C0B22D
:1026900001F0F6FA002001F0F3FA102001F0F0FA50
:1026A0000024304601F0F0FA641CE4B2802CF8D328
:1026B0006D1CEDB2082DE8D370BD10B56420FFF796
:1026C000F1F8AE2001F0DCFA202001F0D9FA102058
:1026D00001F0D6FAB02001F0D3FAC82001F0D0FA08
:1026E000002001F0CDFA102001F0CAFA402001F0DC
:1026F000C7FA812001F0C4FAFF2001F0C1FAA1203D
:1027000001F0BEFAA62001F0BBFAA82001F0B8FA49
:102710003F2001F0B5FAA42001F0B2FAD32001F075
:10272000AFFA002001F0ACFAD52001F0A9FAF020B0
:1027300001F0A6FAD92001F0A3FA222001F0A0FAB4
:10274000DA2001F09DFA122001F09AFADB2001F064
:1027500097FA202001F094FA8D2001F091FA1420CC
:1027600001F08EFABDE81040AF2001F089BA0000F8
:1027700010B50F4C2068007A022811D004280FD021
:10278000032804D0052802D0072805D008E0FEF76A
:102790007DFD2068007A04E006480068C068804734
:1027A000082021680872BDE8104000F017B800004A
:1027B000300F0020340F0020064B521C520803EB50
:1027C000410105D031F8043B20F8023B521EF9D1FB
:1027D0007047000000600040704700000C4810B5D2
:1027E00090F82C10002000F0C7FA0A480068007A20
:1027F000082802D0092809D006E007494FF4805084
:102800000880064910200880002010BD012010BD5E
:10281000A00E0020300F00203E0F0020400F0020AF
:1028200010B5012000F0D0FF064801210160002111
:10283000054A0160031D19604FF4E05111800160E9
:10284000002010BD405C00403C0F00200260C160D1
:10285000416081600020704770B5002483680FE0FC
:10286000C56806685B1C35449D4200D8C36845684E
:102870009D4207D011F8015B866835708360641C47
:102880009442EDD3204670BD30B500230DE044687E
:10289000651C45602478CC54C46805682C444568A0
:1028A0005B1CAC4201D8C468446044688568AC4293
:1028B00004D0934202D204689C42E8D8184630BD46
:1028C000044A0029516901D0014300E0814351616C
:1028D0007047000000100240044A0029D16901D06D
:1028E000014300E08143D1617047000000100240C5
:1028F000044A0029116901D0014300E081431161BC
:102900007047000000100240044A0029916901D07C
:10291000014300E0814391617047000000100240D4
:10292000044A0029D16801D0014300E08143D1600D
:1029300070470000001002400C48016841F001019E
:10294000016041680A4A114041600168094A11402A
:102950000160016821F480210160416821F4FE01D9
:1029600041604FF41F018160704700000010024079
:102970000000FFF8FFFFF6FE30B5204A5168204BFB
:1029800011F00C0103D0042901D0082901D0036003
:1029900012E05168536801F470114FF0020413F40F
:1029A000803F04EB914102D053689B0301D5154B46
:1029B00000E0134B5943016051680F2303EA1111E2
:1029C000114B5C5C0168E14041605468072505EAF1
:1029D00014241C5D21FA04F48460546805EAD424AC
:1029E0001B5DD940C1605268032303EA9232064B53
:1029F0001B1F9A5CB1FBF2F1016130BD0010024077
:102A000000127A0000093D00600F002003460020FC
:102A10005909094A01290AD002290AD0516A03F04A
:102A20001F02012393400B4200D001207047116820
:102A3000F5E7116AF3E70000001002400248406821
:102A400000F00C007047000000100240034A51687B
:102A500021F0F00101435160704700000010024076
:102A60000B490A6822F480320A600A6822F4802244
:102A70000A60B0F5803F07D0B0F5802F03D1086819
:102A800040F4A02008607047086840F48030F9E7FF
:102A900000100240034A516821F4E0610143516093
:102AA0007047000000100240034A516821F4605151
:102AB00041EAC000506070470010024001490866BA
:102AC0007047000000004242034B5A68084322F45A
:102AD0007C1210435860704700100240034A51684E
:102AE00021F00301014351607047000000100240D3
:102AF0000149C1F8D80070470000424218B50020D3
:102B00004FF4A06400903120FFF780FF0099491C2A
:102B10000091A14201D00028F5D03120FFF776FFC7
:102B2000002800D0012018BD2DE9F041214C0728D4
:102B300000D0207020781F4D0626052204271E494C
:102B400006280BD2DFE800F0030C11161E27686878
:102B500010B12270BDE8F08100F030F82670F9E77E
:102B600000F02CF82770012022E002206070032082
:102B70002070EFE76078401E607060780028E9D12F
:102B80002770E7E7086880B240F010000860227004
:102B90000A206070DEE76078401E60706078002870
:102BA000D8D1086880B220F010000860267000209C
:102BB0006860CFE7200F0020405C004010B5064C55
:102BC000206880B220F004002060FFF76BFC4FF417
:102BD0003F40206010BD0000405C004070B51248CE
:102BE000006805281FD1114D287800281BD168687E
:102BF000411C6960052816D10020686040210C48FE
:102C000000F0EEFE0404240C0DD02246C02108483A
:102C100000F006FF2146012000F008F9012000F035
:102C20002BF90120287070BD180F0020380E0020ED
:102C3000C81500200029018802D041F0400101E0C0
:102C400021F0400101807047114910B588420AD136
:102C5000841401212046FFF763FE2046BDE81040A2
:102C60000021FFF75DBE0B49884202D10121041407
:102C700004E0094988420AD10121C4132046FFF724
:102C800037FE2046BDE810400021FFF731BE10BDE1
:102C90000030014000380040003C00400246002067
:102CA00012890A4200D001207047808970478181D3
:102CB000704730B502884C8802F441530A88CD88A9
:102CC00022438C882C4322430C8922434C89224383
:102CD0008C892243CC8922431A430280828B22F4BE
:102CE00000628283098A018230BD0029818802D076
:102CF00041F0040101E021F0040181807047704738
:102D0000024920F00700086070470000505C004056
:102D1000F0B50E490E4E48F68F770D78002148F237
:102D2000800C0BE0CAB206EB8203D3F8004C3C40A7
:102D3000144344EA0C04C3F8004C491CA942F1D3E3
:102D4000044940F080000860F0BD0000F00E002053
:102D5000005000404C5C0040054A21F0010112681F
:102D600092B202EBC000034A02EB40008160704760
:102D7000505C0040006000400D4A12683E2992B24B
:102D800002EBC0000B4A02EB400209D94809C90610
:102D900001D1401E80B24FF4004141EA802004E09E
:102DA0004808C90700D0401C80021060704700002E
:102DB000505C00400C60004082000A480244D2F897
:102DC000000C4BF68F731840CB0401D580F4805073
:102DD000890401D580F4005048F280010843C2F80C
:102DE000000C704700500040810007480844D0F8AC
:102DF000001C4BF68F72114081F4405148F2800262
:102E00001143C0F8001C704700500040054A21F0F3
:102E10000101126892B202EBC000034A42F810109E
:102E200070470000505C004000600040044A126897
:102E300092B202EBC000034A02EB400041607047CF
:102E4000505C00400060004082000A480244D2F812
:102E5000000C48F6BF731840CB0601D580F0100077
:102E6000890601D580F0200048F280010843C2F8AD
:102E7000000C704700500040810007480844D0F81B
:102E8000001C48F6BF72114081F0300148F2800208
:102E90001143C0F8001C70470050004082000548F4
:102EA0001044D0F8002C48F68F131A400A43C0F89B
:102EB000002C7047005000400CB5002226480092BC
:102EC0000192016841F4803101604FF4A063016810
:102ED00001F4003101910099491C0091019911B947
:102EE00000999942F3D10168890333D501210191F9
:102EF0001A490A6842F010020A600A6822F00702C2
:102F00000A600A6842F002020A6041684160416852
:102F10004160416841F480614160416821F47C1165
:102F20004160416841F4E8114160016841F08071FD
:102F3000016001688901FCD5416821F0030141600D
:102F4000416841F0020141604168C1F381010229F9
:102F5000FAD10CBD01920CBD0010024000200240CD
:102F600038B517498022A1F12000FFF76FFC144902
:102F70004FF4C8728031A1F19000FFF767FC012186
:102F80000820FFF7C1FC0220ADF8000003208DF8F7
:102F9000020010208DF8030069460A48FEF7C0FBC6
:102FA0004FF480242046FEF7CDFA074908200C6034
:102FB0004871012088710846FEF7CAFA38BD000042
:102FC000B8130020000C0140080E002010B50020AE
:102FD000FFF78EFD0121BDE81040C805FFF77CBC5E
:102FE00070B516480068174D0004C10B1448014421
:102FF000098989B200EB41042868017A09290FD0B8
:103000002178017061784170A088FDF7CDFE2968B4
:1030100048802089FDF7C8FE29688880A089C8807B
:10302000286801210172C08828B1FEF781F9BDE846
:103030007040FFF7D3BBFFF7BBFAF8E7505C0040E6
:1030400000600040300F00202DE9F0413848006852
:10305000017811F07F0102D0022905D066E0417AA3
:1030600001F0DF0141724EE0418800295ED1017913
:10307000F1BB4179304D21F080040A0605EB840252
:103080002C4BD2F8002C03D5C2F30112120102E03E
:10309000C2F3013212031E782346A64246D93AB340
:1030A000807A28B308064FEA84000ED52844D0F869
:1030B000000CC0F30110012821D11846FDF73AFF9A
:1030C00020463021FFF7C0FE19E04619D6F8000C63
:1030D000C0F30130012812D14BF68F7748F28008F7
:1030E000A4B11846FDF712FFD6F8000C384000E0F6
:1030F0001CE080F4405040EA0800C6F8000C0F487D
:103100000068406980470020BDE8F0810C4890F8D5
:103110002C100020FFF730FED5F8000C384080F46A
:10312000405040EA0800C5F8000CE8E70220EBE751
:10313000300F0020F00E002000500040380F00201B
:10314000A00E002010B5074C30B107480068006899
:10315000804720680A3010BD2168012008820020C5
:1031600010BD0000300F0020380F0020054A136802
:103170005A8A10B10868104470478888801A1882EB
:1031800000207047300F002010B5074C30B10748C1
:1031900000688068804720680C3010BD21680120DD
:1031A0000882002010BD0000300F0020380F0020E2
:1031B000204910B5096860B11F48002202800A78D2
:1031C00053060AD002F07F02012A16D0022A16D036
:1031D00001E002200882002010BD497A8A060278A8
:1031E00002D542F0020201E002F0FD02490602703F
:1031F000D1B211D401F0FE0110E00F4810BD4979A1
:103200000A070B060D4901EB9261D1F8001C07D5A6
:10321000C1F3011106E0017841F00101017003E002
:10322000C1F301310129F6D00548006800698047E3
:10323000E3E70000300F00202A0F0020005000407C
:10324000380F00200A4810B500680A4AC178527841
:10325000914203D882780AB982880AB1022010BD4F
:1032600081720548006840688047002010BD00005A
:10327000300F0020F00E0020380F0020064810B557
:103280000068417A41F02001417204480068C06939
:103290008047002010BD0000300F0020380F0020B4
:1032A00070B51D481D4D0268517921F0800005EB75
:1032B00080000B06D0F8003C21F0800403D5C3F356
:1032C00001131B0102E0C3F301331B03144D2D78DE
:1032D000A54210D9548874B96BB1927A5AB10906D3
:1032E000D0F8001C48F2800207D548F6BF73194099
:1032F00081F0100106E0022070BD4BF68F7319407B
:1033000081F480511143C0F8001C064800688069B0
:103310008047002070BD0000300F002000500040AA
:10332000F00E0020380F002010B50E4C0E4A206819
:103330001268C17892694079904721688A7A22B1EF
:1033400018B9087908B9887808B1022010BD074873
:103350000068C068804720684179C172C1780173F4
:10336000002010BD300F0020340F0020380F002047
:10337000F8B52A4B002000901968294C294A89B2D7
:1033800004EB8005D5F8005CADB242F82050401C3B
:103390000828F5D341F48060186040F001001860FF
:1033A00020F001051D601D49091D08684005FCD578
:1033B0004FF6FF300860002052F8206004EB8007D1
:1033C000B6B2C7F8006C401C0828F5D345F00800D9
:1033D0001860186880B240F004001860124A106843
:1033E0000090106820F0030040F0010010600F48CA
:1033F000046844F0040404600C68E40409D54EF643
:10340000FF740C60196889B221F0080119600099F5
:103410001160016821F004010160F8BD405C0040CA
:1034200000500040481600200070004010ED00E001
:1034300002480168491C0160FEF72ABA700F00209B
:103440000F4810B5016841F00101016041680D4A63
:103450001140416001680C4A11400160016821F48B
:1034600080210160416821F4FE0141604FF41F0199
:103470008160FFF721FD05494FF00060086010BD35
:10348000001002400000FFF8FFFFF6FE08ED00E02C
:1034900010B501218C07204600F021F800280DD03E
:1034A0000121204600F00EF805490888421C0A80D8
:1034B000FEF764FABDE81040FEF703BA10BD000045
:1034C0005A0F0020C943018270470029018802D0A9
:1034D00041F0010101E021F0010101807047024645
:1034E0000020138A92890B4202EA010202D0002ACC
:1034F00000D001207047002A828901D00A4300E0F1
:103500008A4382817047000030B502881B4C1C4DF5
:10351000A0420DD0A8420BD0B0F1804F08D0194B7B
:10352000984205D0184B984202D0184B984203D1CC
:1035300022F070034A881A43154B984206D0154B67
:10354000984203D022F44073CA881A4302808A88C2
:1035500082850A880285A0420AD0A84208D00E4A75
:10356000904205D00D4A904202D00D4A904201D1BE
:10357000097A01860121818230BD0000002C0140C2
:10358000003401400004004000080040000C0040EE
:103590000010004000140040004001400044014081
:1035A000004801402DE9F0410D460646012A0FD0A2
:1035B000104C00212046FDF74BFD0E484438856431
:1035C000066501212046FDF743FD2846BDE8F08150
:1035D0000024094F0BE039883846315D00F0ECF8E3
:1035E0004021384600F04FF80028F9D0641CAC4266
:1035F000F1DBEAE7440002400038014010B5064C18
:103600000146204600F0D8F88021204600F03BF823
:103610000028F9D010BD00000044004070B50B4DEB
:1036200040F225542146284600F034F800280BD0FB
:10363000284600F0BDF8C0B2FFF7E0FF214628465B
:10364000BDE8704000F007B870BD000000440040C5
:10365000C943018070470A0A01219140C943018092
:1036600070470029818902D041F4005101E021F422
:10367000005181817047002A828A01D00A4300E00C
:103680008A43828270470246002012880A4200D094
:103690000120704770B501F01F0501260024C1F319
:1036A000421306FA05F2012B0FD0022B0FD0838AAA
:1036B0004FEA11210088134206FA01F600EA0600DB
:1036C00001D000B10124204670BD8389F0E7038A50
:1036D000EEE710B5C1F3421301F01F040121A14030
:1036E000012B07D0022B07D01430002A026805D026
:1036F0000A4304E00C30F8E71030F6E78A43026032
:1037000010BD000030B50446008A85B00D464CF669
:10371000FF710840E98801432182A0894EF6F31128
:103720000840A9882A8911436A8902431143A1816B
:10373000A08A4FF6FF410840A9890143A18268464B
:10374000FFF71AF91948844201D1039800E0029862
:10375000A189090400EBC00101EB0010296801D523
:10376000490000E08900B0FBF1F06422B0FBF2F107
:1037700009010B096FF018056B4300EB8300A38967
:103780001D044FF0320306D503EBC000B0FBF2F08E
:1037900000F0070005E003EB0010B0FBF2F000F0D2
:1037A0000F000843208105B030BD00000038014003
:1037B0008088C0F308007047C1F30801818070471A
:1037C0004FF48020FDF7BEBE044A00284FF00201EE
:1037D000104601D0FDF7FBBFFDF7F7BF000C01401D
:1037E00006490548022208600272064A0448C1E9F7
:1037F000010200680047000068160020300F00201A
:10380000A00E0020F40E002038B514208DF8000022
:1038100002208DF8010000248DF8024001208DF86F
:1038200003006846FEF766FE2A208DF800008DF83A
:1038300001406846FEF75EFE38BD00002DE9F0410C
:103840004B4D88B0002428684A4E708070884A4FDB
:1038500039880840800507D54FF6FF50286030783A
:10386000401C3070FFF7BAF97088398808400004AE
:1038700001D5FDF79FFA708839884FF6FF38084068
:10388000400504D5C5F800803C48406880477188F1
:1038900038880140890402D54DF6FF71296071888E
:1038A0000140C80405D54EF6FF7028600020FFF7E0
:1038B0003BF970883988084000050BD530480078FE
:1038C00010B1FFF755FD02E00220FFF72DF94FF28E
:1038D000FF702860708839880840C00545D54FF6CC
:1038E000FF6028602248001D00684FF000030004BC
:1038F00037D57068401C70607068032832D91C4846
:10390000001F016809072DD4016889B2B1601D4903
:103910006A4601EB8407D7F8007CBFB242F82470F6
:10392000641C082CF5D3B46844F00104B460B46896
:10393000A4B20460B46824F00104B460B468A4B212
:10394000046028684005FCD5C5F80080002052F8C6
:10395000204001EB8005A4B2C5F8004C401C0828AB
:10396000F5D373600720FFF7DFF808B0BDE8F081FA
:10397000445C0040400E00203C0F0020A00E0020C0
:103980001C0F002000500040FFF758BF0A460146B8
:103990000148FEF761BF0000981300200549002090
:1039A000086005494FF43F4008800249091F08603C
:1039B00000207047445C00403C0F002070B500F0D0
:1039C0007F060D463046FDF715FF04463046FDF7ED
:1039D00001FF014622462846FEF7EEFE204670BD56
:1039E0000A4601460148FEF74FBF0000A813002019
:1039F00005A000F08BF909484169491C4161FDF7B8
:103A0000A9F9FEF7C3FD000055736167654661754E
:103A10006C745F48616E646C65720A00840B0020F0
:103A2000084B10B5521C520803EB410109D010F8A5
:103A3000013B521E10F8014B43EA042321F8043BDA
:103A4000F5D110BD00600040104A10B50021126889
:103A5000212802D0202807D016E0107800F07F003F
:103A6000212811D10A4908E0107800F07F002128B0
:103A700000D10849084B2020187029B1002091611D
:103A800050828847002010BD022010BD300F00205A
:103A9000B53A0008293C0008840E00200149FFF7D0
:103AA00065BB0000980E00200149FFF75FBB0000D6
:103AB000900E002008B104487047044908200968A6
:103AC0000882002070470000880E0020300F002080
:103AD00005490968C978042901D900207047034ABB
:103AE00002EBC101FFF742BB300F0020D00E0020D7
:103AF00009B9012801D90220704700207047000051
:103B000007490968097801F07F01212903D10228BA
:103B100003D0222801D00220704700207047000007
:103B2000300F0020334810B50068334A00218172FD
:103B3000D2794272C1720846FFF7E2F84FF4007181
:103B40000020FFF7ABF910210020FFF77DF940219D
:103B50000020FFF701F980210020FFF757F900202E
:103B6000FDF7FCF9254890F82C100020FFF704F928
:103B70000020FFF739F900210120FFF78FF9C0215C
:103B80000120FFF743F920210120FFF75DF9002113
:103B90000120FFF711F94FF4C0610220FFF77EF911
:103BA0004FF480710220FFF731F900210220FFF766
:103BB00003F920210220FFF747F900210320FFF736
:103BC0006DF94FF488710320FFF7C6F840210320F8
:103BD000FFF7D2F84FF440510320FFF7EDF8002132
:103BE0000320FFF731F90020FFF792F80449012084
:103BF000086010BD300F0020B85D0008A00E002046
:103C0000180F00200348807A002802D002490520BE
:103C10000860704768160020180F00200149042032
:103C200008607047180F002008B104487047044925
:103C3000082009680882002070470000880E0020D4
:103C4000300F002003480178202901D100210170A4
:103C500070470000840E00207047000010B5FDF78B
:103C6000E7FD0548002400688472FEF7D9FDFFF7E0
:103C700095FE0248046010BD300F0020180F002090
:103C800001460020FEF786BA01464020FEF782BAC0
:103C90000FB4084B10B504A902AA039800F058F914
:103CA000044602A9002000F0E1FC204610BC5DF8AB
:103CB00014FB00006D4600087CB50C001D4616463E
:103CC000014601D0601E00E00020CDE90010064B47
:103CD0006A462946304600F03BF9002C02D0009A93
:103CE000002111707CBD00005746000802E008C8A2
:103CF000121F08C1002AFAD170477047002001E066
:103D000001C1121F002AFBD1704700000FB44FF40D
:103D1000807110B503AB0648029AFFF7CDFF81B260
:103D200001220348FFF73EFC10BC5DF814FB0000C5
:103D30005811002030B4094C6FF40052052808D007
:103D4000092808D14FF40153204630BC002101F06E
:103D5000B5B94023F8E730BC7047000008000B00FD
:103D600070B50C4C054601220021204601F0BAFB3B
:103D70002A460021201F01F0B5FB02220021204627
:103D800001F0B0FBBDE8704002480021083001F0AE
:103D9000F5B9000008000B0010B54FF4C0734FF6E2
:103DA000FF720021064801F075F906484FF6E072EF
:103DB00000210068037ABDE81040034801F06AB9A9
:103DC00008000B00000D00201F0011002DE9FF5F0F
:103DD00082B00021DDE90430020DDDF840B003437C
:103DE00018D044F61050A2F2FF3242431514119835
:103DF00001281FD0A5EB0B00401C5FEA000A4FF022
:103E000000064E4FDFF83891B046504615D5CAF13E
:103E1000000413E0119801244AA3012801D16FEA9C
:103E20000B010298119AC0E90031C0E9024206B0C4
:103E3000BDE8F09FCBF10000DFE704460021404AD7
:103E4000491842EB0450CDE9001012E0E00707D01A
:103E500032463B4640464946FCF7F9FC80468946D7
:103E600032463B4610461946FCF7F1FC06460F4623
:103E70006410002CEAD1DDE90401DDE90023BAF188
:103E8000000F06DAFCF7E3FC42464B46FCF7DFFC8A
:103E900005E0FCF74EFD42464B46FCF74AFD044662
:103EA0000E460022284BFCF7F5FE03D84FF0FF30FA
:103EB000014607E00022254B20463146FCF720FC56
:103EC000FCF7C4FD102409E0002C0ADB0A220023C1
:103ED000FCF7EAFD039B30321A55641E50EA0102DA
:103EE000F2D1641C039AC4F111031444119A012AFB
:103EF00003D0012208430DD10AE0084304D000207A
:103F00004FF0110B119072E7A3EB0B056D1E0DE046
:103F10005B4504DD4FF0000205F1010504E003DA22
:103F20004FF00002A5F10105002AECD0029811998A
:103F3000C0E90231C0E9004579E700000000144003
:103F40000000F03F300000000000F0430000E03FC0
:103F50002DE9FF4F95B09A46884606460025EEE1CA
:103F6000252877D100242746F94A0121039400E04F
:103F7000044316F8013F203B01FA03F01042F7D149
:103F800030782A2811D06FF02F033078A0F130025A
:103F9000092A16D8039A44F0020402EB820203EBCA
:103FA00042021044761C0390EFE758F8042B03926A
:103FB000002A03DA504244F40054039044F002040F
:103FC000761C30782E2816D116F8010F44F0040420
:103FD0002A280DD06FF02F023078A0F13003092B82
:103FE00009D807EB870302EB4303C718761CF3E7F6
:103FF00058F8047B761C30786C280FD006DC4C28EF
:1040000017D068280DD06A2814D104E0742810D085
:104010007A280FD10DE044F400140AE044F480142F
:1040200001E044F440147278824202D104F5801415
:10403000761C761C307866280BD013DC582877D095
:1040400009DC002875D04528F6D04628F4D047284A
:104050001AD193E118E0632835D0642879D0652817
:1040600012D18BE1702873D008DC6728F1D0692861
:104070006FD06E280DD06F2806D1ACE073282CD0FD
:10408000752874D0782853D05246179990476D1CE4
:1040900054E1C4F30250022809D003280DD0D8F807
:1040A000001004280DD00D6008F1040846E1D8F88E
:1040B0000010EA17C1E90052F6E7D8F800100D80A9
:1040C000F2E70D70F0E718F8041B8DF800100020DF
:1040D0008DF80100EB46012003E058F804BB4FF0D7
:1040E000FF3061074FF0000102D40DE009F101013A
:1040F0008946B9420FDA8145F8DB1BF8091000291F
:10410000F4D108E009F1010189468142FADB1BF88C
:1041100009100029F6D103985346A0EB0907214660
:104120003846179A00F080FA284400EB090507E0AA
:1041300044E008E10DE01BF8010B52461799904747
:10414000B9F10109F7D2534621463846179AF2E0F1
:1041500039E00A21C4F302524FF0000B0091022A09
:1041600006D058F8040BC117032A09D00AE023E04F
:1041700008F1070020F00702F2E80201904605E08E
:1041800000B2C117042A01D140B2C117002906DAD2
:104190000A460021404261EB02012D2202E0220585
:1041A00004D52B228DF80420012203E0E20701D080
:1041B0002022F7E7914657E00A2100E010214FF056
:1041C000000B00910BE010214FF0000B44F00404B1
:1041D0000827009103E008204FF0000B0090C4F383
:1041E0000252022A05D058F8040B0021032A08D0F5
:1041F00008E008F1070020F00702F2E8020190460B
:1042000003E080B2042A00D1C0B24FF000092207B7
:104210002AD53278702A07D0DDF800C08CF0100C57
:104220005CEA0B0C05D00EE040228DF80420012240
:1042300008E050EA010306D030238DF804308DF8F1
:10424000052002229146009B83F0080353EA0B03EA
:104250000AD150EA010201D1620705D530228DF85A
:1042600004204FF001097F1E3278582A04D039A269
:104270000C920CAA02920BE03BA2F9E75B46009A73
:10428000FCF712FC0C9B9B5C029A521E029213706C
:1042900050EA0102F2D1029804A9081A00F1200B99
:1042A000600702D524F4803400E001275F4502DD79
:1042B000A7EB0B0000E0002000EB0B01009003983F
:1042C0004944401A0390E00306D453462146179A06
:1042D000039800F0A9F90544002706E001A852461A
:1042E000C05D179990476D1C7F1C4F45F6DBE003BE
:1042F0000CD553462146179A039800F095F90544CA
:1043000004E030205246179990476D1C0099481ED2
:1043100000900029F5DC08E00298029952460078E6
:10432000491C0291179990476D1CBBF10001ABF13C
:10433000010BF1DC5BE100F065F90544761C307897
:1043400000287FF40DAE19B02846BDE8F08F0000BC
:10435000092801003031323334353637383961625B
:10436000636465660000000030313233343536371F
:10437000383941424344454600000000600700D4FC
:10438000062708F1070020F00700F0E80223804626
:1043900003F0004C5FEA0C0001D097A009E0200573
:1043A00001D596A005E0E00701D095A001E0AFF2AD
:1043B0004C001390307823F0004365280CD006DCC5
:1043C000452809D046281DD047287FD13BE06628E4
:1043D00018D067287AD136E00021112F01DB112097
:1043E00000E0781CCDE9000104A90CA8FFF7EEFC61
:1043F000DDE90D010C9A4FF0000B07F10109109255
:1044000000914EE04FF000400097CDE9011004A963
:104410000CA8FFF7DBFCDDE90D020C9B0F994FF0B8
:10442000000B91461093009211B9791C00EB010921
:10443000B7EB090003D4C0F1FF3B07F10109A9EB79
:104440000700019042E0012F00DA01270021112F1F
:1044500001DD112000E03846CDE9000104A90CA8D7
:10446000FFF7B4FCDDE90D010C9A00914FF0000B51
:10447000B946109221070FD4009A4A4503DA9146B3
:1044800001E0A9F10109B9F1010F05DD109AA9F1C7
:104490000101515C3029F4D0B84202DA10F1040F66
:1044A00003DA0121CDE9011010E0002803DC834488
:1044B000A9EB000102E0411C494500DD8946A0EB63
:1044C0000B00401C01904FF000400290200705D4E3
:1044D0000198484502DB4FF0FF30019000208DF835
:1044E0004B0002980DF14B07B0F1004F25D0022090
:1044F0000C902B200D90029800280CDA404202907C
:104500002D200D9007E00A210298FCF7B7FA303110
:10451000029007F8011D0C99481E0C900029F2DC4E
:1045200002980028EFD1791E0D980870307800F0BD
:10453000200040F0450007F8020D11A8C01BC01D67
:1045400002901398007800B1012000EB0901019856
:1045500001EBE071029801440398401A401E039059
:10456000E00306D453462146179A039800F05CF8FE
:1045700005441398007818B15246179990476D1C5E
:10458000E00323D553462146179A039800F04CF8D0
:1045900005441BE0BBF1000F07DB0098584504DD24
:1045A0001098179910F80B0001E017993020524627
:1045B000904701980BF1010B401E05F10105019098
:1045C00004D12E205246179990476D1CB9F1000175
:1045D000A9F10109DEDC05E017F8010B5246179935
:1045E00090476D1C0299481E02900029F4DC534646
:1045F0002146179A03989EE62D0000002B0000002C
:10460000200000002DE9F041044600251E46174613
:10461000880404D405E039462020B0476D1C641E90
:10462000F9D52846BDE8F0812DE9F0410446002582
:104630001E469046C80301D5302700E02027880495
:1046400004D505E041463846B0476D1C641EF9D5D7
:104650002846BDE8F0814A68002A06D00A68531C43
:104660000B6010704868401E486070470A68531C11
:104670000B601070704700002DE9FC411E480024BB
:10468000DFF87880D0E90210CDE9001025466F46AA
:10469000012637F815104046FDF790F818B106FAD4
:1046A00005F0204384B26D1CEDB2042DF1D3144DFE
:1046B00004212846FDF782F808B144F010040821CF
:1046C0002846FDF77BF808B144F020040D4B00208C
:1046D0005A8806FA00F1114205D0214203D15C80CC
:1046E00040B2BDE8FC81401CC0B20628F1D35C801A
:1046F0004FF0FF30F5E70000405E0008000C01407D
:1047000000080140480F0020002805D04FF0E021AC
:104710004FF40000C1F80001704710B51720FBF7F7
:10472000C1FE002805D04FF0E0224FF40001C2F88E
:10473000801110BD10B5044602E00120FBF747FED2
:10474000641EFAD210BD000070B504460D4601206B
:1047500000F0E4FA0021284600F094FA284600F020
:10476000C5FAC4F30B0200210F4800F0BBFE0E4C4B
:1047700003230C3CFF220021204600F0BFFC002157
:10478000204600F00BFDC007F9D100F073FA0020BD
:1047900000F054FA052000F0C1FA0021034800F0AF
:1047A000FDFC00F03F0070BD1C0008001C0007006D
:1047B00010B500F0FCFC0549884205D003491039CA
:1047C000884201D0881710BD002010BD1203CADE38
:1047D00010B50221442000F0C3FC0004C0F30060C7
:1047E00010BD00002DE9F047052840D0294E294D85
:1047F0003F36254ADFF89490DFF89480254F7735CF
:104800002C460021244800F079FE23484A46002126
:10481000001D00F073FE204842460021083000F0E1
:104820006DFE1D483A4600210C3000F067FE1A4824
:1048300032460021103000F061FE17482A46002160
:10484000143000F05BFE144822460021183000F0BE
:1048500055FE1148114A00211C3800F04FFEBDE8FA
:10486000F0470D4800210E4A183800F047BE0F4FA0
:104870000F4D0F4CC0377F350A4ADFF82C90DFF818
:104880002C800B4EBF34BCE7FEA8020036AC020001
:10489000FEA502003EAF02003800030040020010F7
:1048A00089A46D1BFDC001003EC40100BEC601000D
:1048B00036CF01002DE9F05F044690F800800079C2
:1048C000182802D8E078182801D9012000E000203B
:1048D0008346E079012864D0002082466078012870
:1048E00063D004285FD0052863D007285FD04FF439
:1048F0008075DFF8C0920121D9F80060308A20F07D
:10490000E0003082E0793073207B801C81408FB2E0
:10491000F800FCF77DF8A849FBF7C0FEFCF77DF82E
:104920007082E07A7075607BE17A000401F00B011F
:1049300040EA0133207A202101EA4010034343EA90
:104940000A039E4A0021102000F0B8FB5FEA0B002A
:104950009B4EDFF870B26FF4C05A2CD0D9F800002B
:104960004FF440635246018A41F060010182002108
:10497000584600F0A3FB40F206320021B01F00F0C1
:10498000BDFD00221146301F00F0B8FD8E4A002107
:10499000304600F0B3FD7D220021301D00F0BCFD4B
:1049A00038E0102099E72025A3E74025A1E7482516
:1049B0009FE780259DE7E07AA8B1607B83490128C5
:1049C0001CD0D8B1207B042231F81000102100F057
:1049D000A3FE00F07F0305EBC7054FF680720221AE
:1049E000304600F057FBFF2D0DDDD9F800004FF4E5
:1049F0008063018A41F02001018206E0207B0322CE
:104A000031F81000E2E74FF4A05352460021584617
:104A100000F054FB4FF4C025A378FC220021284667
:104A200000F06CFB7F1EFAB200214FF4003000F062
:104A300073FD6078072817D0002000F0CBFCE07AE7
:104A4000634BC043800711D0624A0021184600F032
:104A500055FD614E0021304600F090FB6FF30C00D5
:104A6000B8F1090F04D005E00820E6E75B4AECE75F
:104A700040F0010021794FF4F85202EA012101438C
:104A8000E0780622C00641EA1060617902EA41023C
:104A900002430021304600F031FDA07961788002A8
:104AA00040EA01336FF474420021242000F006FB39
:104AB000B4F8090010B98120A4F80900B4F809205D
:104AC0000221284600F00EFD454B4FF41025B8F1A9
:104AD000090F37D0434A0021184600F00FFD41F678
:104AE0003C720021284600F0FDFC3D4814220121C3
:104AF000343000F011FD3A480E220221001F00F070
:104B00000BFD81220021384800F006FD0222002121
:104B1000442000F001FD012000F01CFC01260025CE
:104B20000120FBF754FC0021442000F037FB8007F4
:104B30001AD46D1CEDB2062DF2D3AEB14FF0FF309A
:104B4000BDE8F09F294A0021184600F0D7FC40F646
:104B50003C720021284600F0C5FC2148244A00216F
:104B60000C3800F0CBFCC0E72179224C09390F2921
:104B700015D8D9F80000407A01280BD04046FFF73D
:104B800031FE4FF4C84348F2FF120021204600F0E6
:104B900081FA0AE04FFA88F0FFF7CCF8F1E700233A
:104BA000FE221946204600F0A9FABDE8F05F012078
:104BB00000F0B2BA000D00206666663FCF4FFCFFE2
:104BC00012000E0008000B000A5A0C00985D000845
:104BD0000C0006004C585FAF14000100CC355FAFED
:104BE0001C0007003411071C080009003400011CD8
:104BF00033A8B5081800030070B50446008998B1C1
:104C0000052500210B4800F0C9FAC00700D009258E
:104C100020892946FFF798FD6268BDE87040054885
:104C20000021083800F06ABC22780021024800F018
:104C300073FCF1E7140001001C00070010B50446E6
:104C4000002211460A4800F059FC002211464FF498
:104C5000E02000F053FC002C08D005480021BDE8FE
:104C600010404FF0E052343800F048BC10BD000056
:104C70004800070000221146014800F03FBC000038
:104C8000040007002DE9F041144F0D4604464FF093
:104C9000FF364FF0082332460021384600F00EFA66
:104CA0004FF0601332460021384600F007FA4FF407
:104CB000E020052C0ED00A4B3246002100F0FEF910
:104CC000002D09D0BDE8F04104480021054A3438E0
:104CD00000F014BC044BEFE7BDE8F081480007008A
:104CE000001C000200110101003C000230B4084C1D
:104CF0004FF0FF32052807D0092807D1054B204681
:104D000030BC002100F0DAB9034BF8E730BC704743
:104D100004000700001C0002003C0002074B0128B1
:104D200007D0052808D14FF400720021184600F082
:104D3000D9BB41F62202F8E77047000004001100D9
:104D400010B5FFF7EAFC002304461A461946184638
:104D500000F0E9FB2046BDE81040FFF7D5BC00009D
:104D600030B504460023054D03E0E05C50405B1C79
:104D70002A5C8B42F9DB104630BD000098120020FF
:104D80002DE9F041394E0546002431680220CC73EC
:104D900008820C754C758C72CC728C62CC620C6380
:104DA0004C63CC638C63FFF703FD10B1601EBDE85C
:104DB000F0810420FEF7D4FF80460520FEF7D0FFE7
:104DC00007460A20FEF7CCFF3168C0F30440B8F173
:104DD000000F087203D017B108B1FEF7DDFF2020E5
:104DE000FEF7BEFF2249884203D131680120487294
:104DF00001E030684472E80604D40620FEF7B0FFF4
:104E000031680860A80604D40720FEF7A9FF3168BE
:104E10004860680604D50820FEF7A2FF3168887252
:104E2000280604D50920FEF79BFF3168C872306858
:104E3000C17A09B98521C172817A09B97421817257
:104E40001F20FEF78DFF316848731E20FEF788FF94
:104E500010F07F013068817301D12E218173CAB2B5
:104E60000021044800F058FB0020A0E7000D0020BE
:104E700040020010140009002DE9F04700214FF412
:104E8000F81000F08BF905460021442000F076F977
:104E90007D4F044638688461407DC043800703D15C
:104EA000A00401D545F00805280628D50021482092
:104EB00000F056F9014638688183027D12B1007E08
:104EC000400702D411F4606F0FD004220021442067
:104ED00000F014FB4FF460620021482000F002FB58
:104EE0003868816B09B1183088473868808BC005F5
:104EF00005D54FF480720021482000F0F3FAE8074E
:104F000009D0F8220021442000F006FB3868816AAD
:104F100009B11830884768060AD53868C16B09B1ED
:104F2000183088474FF4C0720221442000F0DAFAAA
:104F300028077DD538680026DFF8509180F820607A
:104F4000C07BB046A0B10021484600F027F939687F
:104F5000C97B032900D10009C10701D044F4804472
:104F6000810701D544F40054400701D544F480641E
:104F700038686103846108D590F820104FF48026CA
:104F800041F0080180F8201007E0610505D590F890
:104F9000201041F0040180F82010E10007D590F8BE
:104FA000201046F0805641F0100180F82010A10436
:104FB00003D5417DC943890709D0610431D5C07B40
:104FC000012817D003280CD000214C201AE010F83B
:104FD000201F46F4004641F00201017020F8028CC7
:104FE0001FE0F0220021484600F096FA00214FF41D
:104FF000F01007E00F220021484600F08DFA002152
:105000004FF4C01000F0ACF839680A7BB2B3C0F3BB
:105010000902CA83000404D511F8200F40F00100F2
:10502000087046F4DE420021442000F067FA00E0F8
:1050300009E03868C16A09B1183088473868C07B10
:1050400008B100F0CDF9E80609D5114A0021442045
:1050500000F054FA3868416B09B118308847A80647
:1050600010D522220221442000F056FA3868016B44
:10507000002907D0BDE8F04718300847FFE700F0E7
:105080007F02C6E7BDE8F087000D00202400010084
:10509000009005241CB589B28DF80420120A8DF801
:1050A00005208DF806301A0A8DF8072048F2020212
:1050B000009201AB042200F08BFA1CBD3EB5140A2D
:1050C0008DF804208DF80540140C8DF80640120E62
:1050D0008DF807208DF808301A0A8DF809201A0C6F
:1050E0008DF80A201A0E8DF80B2048F20302009268
:1050F00089B201AB082200F06BFA3EBD1CB589B243
:105100008DF8042048F201028DF80530009201ABC1
:10511000022200F05DFA1CBD2DE9F0410F4D04465E
:1051200001280CD10021284600F01AF8064640F26A
:1051300005134FF6FF7200212846FFF7ABFF00F082
:1051400073F80746012C05D100233246194628463C
:10515000FFF7A0FF3846BDE8F081000048000700D7
:1051600008B589B26B46022200F025F89DF80000D0
:105170009DF8011000EB012080B208BD38B5002475
:1051800089B26B46042200F016F803216846425C9F
:10519000491E02EB0424FAD5204638BD08B589B271
:1051A0006B46012200F007F89DF8000008BD0021C1
:1051B0000846FFF7E3BF38B50024009400F008FA72
:1051C00038BD000070B50646154815460C46006807
:1051D000C07B03280BD04FF490102919B1F5806FD4
:1051E0001CD27F2D06D833462246294612E04FF4C2
:1051F0009810F2E7020C00210A4800F07FF90948F4
:105200002A460021001D00F079F93346224600218C
:105210004FF4E810BDE87040FFF7CDBF70BD00004F
:10522000000D002004001F002DE9F047DFF89880F2
:105230000025244A29464446404600F05FF91023E1
:10524000FF2200212046FFF759FFDFF87C9001275D
:10525000002409F11409661E1420FBF7B9F8002197
:105260004846FFF79BFF012805D0641CE4B2032CDD
:10527000F2D307B13546002211464446404600F0BD
:105280004BF901220021484600F046F90123FF2294
:1052900002212046FFF732FF0B4800210830FFF7BC
:1052A0006DFF6FF06044A04200D1354606480021F2
:1052B0001030FFF763FFA04200D135462846BDE815
:1052C000F0870000010002000C00040070B504002B
:1052D0000CD024F002014FF0FF3501290DD0042934
:1052E00010D008292AD0102926D12CE000231A46F4
:1052F0001946022000F017F92AE000231A46194641
:10530000042003E000231A4619460A2000F00BF996
:1053100003214420FFF742FF000719D500231A4656
:105320001946184600F0FFF8A00705D400231A46D6
:105330001946022000F0F7F8284670BD00231A46EF
:1053400019460820E2E700231A4619460620DDE741
:10535000002070BD2DE9F0411D4C012819D0271FF8
:1053600025056FF4807602281AD00123FF22002140
:105370003846FFF7C3FE2B46324600212046FFF792
:105380009DFE00237F2202212046BDE8F041FFF769
:10539000B5BE0520FFF7C2FC0123FF221946F3E743
:1053A0000323FF2200213846FFF7A8FE2B46324692
:1053B00000212046FFF782FE00237F2202212046A3
:1053C000FFF79CFEBDE8F0410520FFF7A7BC0000F9
:1053D0000800110002460121282000F09DB80000BD
:1053E000002310B51A461946132000F09CF8054812
:1053F0000068C17B032902D00321C17310BD0121C4
:10540000FBE70000000D002070B5002410F0050F30
:1054100003D1010701D4C10647D5C10709D04FF018
:10542000000380071A46194601D50D2024E0032009
:1054300022E0010709D54FF0000380071A461946FC
:1054400001D50F2018E0072016E0C1064FEA807052
:1054500009D54FF0000300281A46194601DA0E203C
:105460000AE0052008E04FF0000300281A4619461C
:1054700001DA102000E0092000F055F80321442053
:10548000FFF78CFE00074FF0FF3506D400211448CB
:10549000FFF774FEB0F5502F20D100231A461946AD
:1054A000184600F040F82C4618E081064FEA80705C
:1054B00009D54FF0000300281A46194601DA1120D9
:1054C0000AE00B2008E04FF0000300281A461946B6
:1054D00001DA0C2000E0012000F025F8204670BD24
:1054E00030000F0008B589B28DF80020120A8DF83F
:1054F00001206B46022200F016F808BD38B50023E3
:105500006C46E254120A5B1C042BFADB89B2234678
:10551000042200F008F838BD07B589B202AB0122B9
:1055200000F001F80EBD38B54FF40044009400F0CF
:105530004FF838BD70B50446101915460E46B0F543
:10554000806F1BD27F2D05D80B46224629464FF48B
:10555000A0100FE0142200210A48FFF7CFFF0948EE
:105560002A460021001DFFF7C9FF334622460021CD
:105570004FF4E810FFF7D7FF002070BD4FF0FF3069
:1055800070BD000004001F0010B5104C7F290AD820
:1055900040EA014040EAC22322460021BDE8104013
:1055A0002420FFF78BBD4FF4000303EB01410143BF
:1055B00041EAC223224600212420FFF77FFDBDE8F7
:1055C000104000214FF40020FFF7E8BD00F400FC7C
:1055D0002DE9F843054616462944C1F304420898CC
:1055E000984601F07F011F2A27D87F2925D8B6F5D4
:1055F000445F22D24FF4004348F2010C98420AD093
:1056000048B1604507D0A0F50044023C03D0A0F5A6
:105610000044033C11D1520242EA810240EA0204F2
:10562000240A00F003078DF8004017438DF801703D
:105630000EB151B10CE0984201D0AFF3008081214E
:1056400041EA45018DF8001013E098420FD070B187
:1056500044F040018DF800100224274FA0EB0C010C
:1056600060450DD007DC20B3984208D108E08DF8E2
:1056700000400124F1E7012902D0022900D0FEE711
:105680003868007D70B1002221466846FFF768FB4C
:10569000024631464046FFF763FB18A0FEF736FB93
:1056A000BDE8F8834346324669462046FAF745FF8F
:1056B000F6E74346324669462046FAF76CFF3868FB
:1056C000007D0228ECD1182DEAD000222146684640
:1056D000FFF746FB024631464046FFF741FB0446D2
:1056E00000211820FFF75AFD8442D9D03868406A5B
:1056F0000028D5D08047D3E7000D00204E4F4E45FF
:1057000020535049207772697465746F737069779C
:105710006974686372630A004843032A02D1B521A1
:105720004843C009C0F30A01C00A01F58061B1F520
:10573000006F00D3401C704710B50B460246322163
:105740000248FCF7E1FD002010BD000000580040B9
:1057500008B5FDF775FEFDF7EFF84FF480342046ED
:10576000FDF77EF9FDF7CAF9002875D01020FBF788
:1057700067FF0220FBF798FF0020FDF767F9002084
:10578000FDF792F9A011FDF785F94FF4E0112046DD
:10579000FDF79AF90120FDF791F93920FDF736F967
:1057A0000028FAD00220FDF799F9FDF747F90828FB
:1057B000FBD1FCF7E3FA00F013FA01210C20FDF70E
:1057C000A3F848208DF8030002208DF802004FF462
:1057D0007060ADF8000069462148FBF7A1FF0C207E
:1057E000ADF8000069461F48FBF79AFF1E490020EC
:1057F00008701E490120487000F0DAF8FAF73EFE02
:10580000FAF7F0FD0220FEF795FFFEF7E1FF002812
:10581000FBD00020FFF7B4FA401C1ED01348001D37
:10582000FFF748F8401C19D01148FFF7E5F90020B0
:10583000FFF74CFD00F01EF8FEF71EFF0400F9D440
:105840001420FEF777FFFEF717FF0028F2DAE0B228
:1058500000F056F8EEE7FFE7FEE7FEE7FEE70000A0
:10586000000C01400008014084160020480F002071
:10587000740F002010B5A0B000214420FFF77EFC7B
:1058800041042FD500214C20FFF778FCC0F3090418
:105890004FF4804200214420FFF730FEE01E7C28B8
:1058A0001BD8A01E81B200226846FFF78BFC0C2C8F
:1058B00013D99DF80900A2280FD10C3C0D49E0B284
:1058C0002028487001D920204870C2B20A480DF142
:1058D0000A01FAF7BFFE00F06BF80020FFF7F6FCB4
:1058E00020B010BD054A1042FAD000214420FFF735
:1058F00005FEF2E7480F00208416002000900524E2
:105900002DE9FE43044641208DF80000DFF8948025
:1059100088208DF8010098F800008DF80200401CE6
:1059200088F80000DE208DF80300CA208DF80400FE
:10593000FF208DF805008DF8060000208DF8080086
:10594000194E0125A1208DF807508DF80900305D12
:105950000B278DF80A00FFF7F3F900226946384655
:10596000FFF7E8FD00220D201146FFF70DFE002095
:10597000FFF74AFD00214420FFF700FC0006F9D59F
:10598000802200214420FFF7B9FD0849305D0870EE
:1059900088F8015000F00CF80020FFF797FCBDE8F4
:1059A000FE830000480F0020405E0008841600209F
:1059B0002DE9F041002666F3070566F30F25204C1C
:1059C00040F21713EF223146304600F0A3F9DFF81A
:1059D00074804FF4805739464046FBF7F6FE0221AB
:1059E0001948FBF7F4FE06E0304600F033F8C5F343
:1059F000072000F02FF8641EF6D239464046FBF728
:105A0000E6FE00241E25114E114F11E0E00800EBC8
:105A1000C00101EB001005EB400204F00700C0EBF1
:105A200000104100305D032300F06AF8641CE4B20A
:105A30007878844201D2102CE8D3BDE8F0810000D0
:105A400080060100000C014000080140841600207F
:105A5000480F002070B50B4C054602212046FDF78B
:105A60001DF90028F9D029462046FDF720F901212B
:105A70002046FDF713F90028F9D02046FDF715F967
:105A8000C0B270BD0038004070B50A4D06464FF4F4
:105A9000805421462846FBF798FE02210648FBF772
:105AA00094FE3046FFF7D6FF21462846BDE87040F9
:105AB000FBF78DBE000C0140000801402DE9F041CC
:105AC0000D4F0C4605464FF4805631463846FBF7DD
:105AD0007CFE02210948FBF77AFE03E015F8010B72
